:020000040000FA
:100000000C9462000C948A000C948A000C948A0070
:100010000C948A000C948A000C948A000C948A0038
:100020000C948A000C948A000C948A000C948A0028
:100030000C948A000C948A000C948A000C948A0018
:100040000C9425030C948A000C948A000C948A006A
:100050000C948A000C948A000C948A000C948A00F8
:100060000C948A000C948A000000000024002700F1
:100070002A0000000000250028002B0000000000DE
:1000800023002600290004040404040404040202DA
:100090000202020203030303030301020408102007
:1000A0004080010204081020010204081020000012
:1000B0000008000201000003040700000000000027
:1000C00000000B0511241FBECFEFD8E0DEBFCDBF6F
:1000D00011E0A0E0B1E0E4EBFCE002C005900D927D
:1000E000AA32B107D9F721E0AAE2B1E001C01D921E
:1000F000A435B207E1F710E0C2E6D0E004C02197D2
:10010000FE010E945206C136D107C9F70E946F0353
:100110000C9458060C940000833081F028F4813050
:1001200099F08230A9F008958730A9F08830C9F09D
:100130008430B1F4809180008F7D03C08091800075
:100140008F7780938000089584B58F7784BD08955C
:1001500084B58F7DFBCF8091B0008F778093B00006
:1001600008958091B0008F7DF9CFCF93DF93282F32
:1001700030E0F901E255FF4F8491F901E656FF4F57
:10018000D491F901EA57FF4FC491CC23A1F081111A
:100190000E948C00EC2FF0E0EE0FFF1FE458FF4FA1
:1001A000A591B491EC91ED2381E090E009F480E019
:1001B000DF91CF91089580E090E0FACF1F93CF9325
:1001C000DF93282F30E0F901E255FF4F8491F901C8
:1001D000E656FF4FD491F901EA57FF4FC491CC2363
:1001E000A9F0162F81110E948C00EC2FF0E0EE0F89
:1001F000FF1FEE58FF4FA591B4918FB7F894EC9183
:10020000111108C0D095DE23DC938FBFDF91CF9111
:100210001F910895DE2BF8CFCF93DF9390E0FC0180
:10022000E656FF4F24918A579F4FFC018491882303
:10023000D1F090E0880F991FFC01E859FF4FA5917C
:10024000B491FC01EE58FF4FC591D491623071F426
:100250009FB7F8943C91822F809583238C93E881FB
:100260002E2B28839FBFDF91CF9108958FB7F894ED
:10027000EC912E2B2C938FBFF6CF3FB7F894809143
:10028000380190913901A0913A01B0913B0126B516
:10029000A89B05C02F3F19F00196A11DB11D3FBFBE
:1002A000BA2FA92F982F8827BC01CD01620F711D8D
:1002B000811D911D42E0660F771F881F991F4A9587
:1002C000D1F708958F929F92AF92BF92CF92DF9213
:1002D000EF92FF920E943D014B015C0188ECC82E19
:1002E000D12CE12CF12C0E943D01681979098A0971
:1002F0009B09683E734081059105A8F321E0C21A6D
:10030000D108E108F10888EE880E83E0981EA11C50
:10031000B11CC114D104E104F10429F7FF90EF905E
:10032000DF90CF90BF90AF909F908F900895AF9245
:10033000BF92CF92DF92EF92FF920F931F93CF93D2
:10034000DF936C017B018B01040F151FEB015E0134
:10035000AE18BF08C017D10759F06991D601ED91C9
:10036000FC910190F081E02DC6010995892B79F768
:10037000C501DF91CF911F910F91FF90EF90DF901A
:10038000CF90BF90AF900895089590E080E00895D9
:1003900061E081E00E94DE0060E080E00C94DE001D
:1003A000FC0101900020E9F73197AF01481B590B80
:1003B000BC018CE391E00C949701CF93DF93EC01A7
:1003C00060E08E810E94DE0061E08E810E94DE008E
:1003D00060E08E810E94DE008BE891E00197F1F7EA
:1003E000DF91CF910895CF92DF92EF92FF920F931A
:1003F0001F93CF93DF936C017C0187E0E80EF11C23
:10040000D0E0C0E0062F10E0B8010C2E02C07595B8
:1004100067950A94E2F76170F70181917F010E946C
:10042000DE002196C430D10579F7C601DF91CF9166
:100430001F910F91FF90EF90DF90CF900C94DD0112
:10044000CF92DF92EF92FF920F931F93CF93DF93A0
:10045000EC01F62E642F8C810E94DE008D818F3F8F
:1004600019F060E00E94DE000F2D10E08F8584FF00
:1004700025C06E0187E0C80ED11CF12CE12CB8011B
:100480000E2C02C0759567950A94E2F76170F6012B
:1004900081916F010E94DE00FFEFEF1AFF0A88E0F2
:1004A000E816F10461F7CE01DF91CF911F910F9112
:1004B000FF90EF90DF90CF900C94DD01B80184E0C5
:1004C000759567958A95E1F7CE010E94F3016F2D2E
:1004D000CE01DF91CF911F910F91FF90EF90DF90B0
:1004E000CF900C94F30140E0682F8CE391E00C94E2
:1004F0002002CF93DF93823029F490914B019860D2
:1005000090934B0180934F011092500180E48093AF
:10051000510180E18093520180E58093530161E0B5
:10052000809140010E940C01809141018F3F19F0A0
:1005300061E00E940C0161E0809142010E940C0187
:10054000CCE3D1E09E012C53314080914B0184FDDE
:100550000BC084E090E021962817390744F461E04D
:100560008E810E940C01EECF88E090E0F4CF8BE307
:100570009DE00197F1F760E0809140010E94DE006C
:1005800060E0809142010E94DE00809141018F3F36
:1005900019F060E00E94DE0080914B0184FD39C0BB
:1005A00063E08CE391E00E94F301CBE4D6E4CE015A
:1005B0000197F1F763E08CE391E00E94F30121974A
:1005C000F1F763E08CE391E00E94F30183E592E0B0
:1005D0000197F1F762E08CE391E00E94F3018091D2
:1005E0004B0180620E94730284E080934C018CE096
:1005F0000E94730281E00E9473028BE39FE10197E6
:10060000F1F782E080934D0186E0DF91CF910C9469
:10061000730280620E9473028BE496E40197F1F703
:1006200080914B0180620E94730283E592E0019702
:10063000F1F780914B0180620E947302D0CF41E0BC
:100640000E94200281E090E008951F920F920FB661
:100650000F9211242F933F938F939F93AF93BF9348
:100660008091340190913501A0913601B09137010C
:100670003091330123E0230F2D3758F50196A11D4A
:10068000B11D209333018093340190933501A093E1
:100690003601B09337018091380190913901A091D2
:1006A0003A01B0913B010196A11DB11D8093380123
:1006B00090933901A0933A01B0933B01BF91AF9160
:1006C0009F918F913F912F910F900FBE0F901F9090
:1006D000189526E8230F0296A11DB11DD2CFCF9306
:1006E000DF93CDB7DEB7A1970FB6F894DEBF0FBE8C
:1006F000CDBF789484B5826084BD84B5816084BDAB
:1007000085B5826085BD85B5816085BD80916E00AF
:10071000816080936E0010928100809181008260E0
:10072000809381008091810081608093810080911D
:1007300080008160809380008091B100846080930C
:10074000B1008091B00081608093B00080917A0008
:10075000846080937A0080917A00826080937A002E
:1007600080917A00816080937A0080917A0080681D
:1007700080937A001092C10062E08BE00E940C012D
:1007800062E08CE00E940C0161E08DE00E940C01AF
:1007900082E00E94790262E08EE00E940C0161E03A
:1007A00080E00E940C0161E081E00E940C0162E0A7
:1007B00082E10E940C0181E00E9473028BE39FE1C1
:1007C0000197F1F7E1E080914F018111E0E0E195BF
:1007D000F0E0E45CFE4F848980680E9473028CE044
:1007E00091E00E94D00119A280E388A3CE018096F7
:1007F0000E94D001E0914F01E23008F0E0C0E150EA
:10080000F0E0E45CFE4F848980680E94730280916E
:100810003201882309F4D5C083E191E00E94D00120
:1008200084E4E82E00E010E080913201882309F48E
:100830003FC0E0927C0080917A00806480937A00CF
:1008400080917A0086FDFCCF6091780070917900EC
:10085000072E000C880B990B0E94300520E030E039
:1008600040EA5BE30E94940520E030E048EC52E46B
:100870000E9494054B015C0120E030E048EC51E41B
:100880000E948F05181644F461E080E00E94DE00AB
:1008900060E081E00E94DE0020E030E040EA51E4C8
:1008A000C501B4010E94290587FF8EC00E94C801BE
:1008B000F0903201F11015C080E00E94B500892B44
:1008C00041F461E080E00E94DE0060E081E00E948F
:1008D000DE0081E00E94B500892B09F07EC00E94F5
:1008E000C8018EE00E94B500892B21F481E0F82632
:1008F000F09232018BE00E94B500892B09F076C09E
:1009000061E080E00E94DE000E94620160E080E021
:100910000E94DE000E94620161E081E00E94DE0030
:100920000E94620160E081E00E94DE000E9462019C
:100930002FB7F8948091340190913501A091360140
:10094000B09137012FBF80932E0190932F01A09378
:100950003001B09331012FB7F89480913401909118
:100960003501A0913601B09137012FBF40912E0182
:1009700050912F016091300170913101841B950BD2
:10098000A60BB70B80932A0190932B01A0932C0107
:10099000B0932D01883823E19207A105B10598F5A0
:1009A0008BE00E94B5000197B1F68CE00E94B50083
:1009B000019789F660E08DE00E94DE001DC0E1E055
:1009C0001FCF8DE191E02ACF60E080E00E94DE0041
:1009D00060E081E00E94DE006BCF60E080E00E947A
:1009E000DE0060E081E00E94DE007BCF8CE00E94B0
:1009F000B500892B09F484CF0115110509F414CF32
:100A00000E94000011CF88389341A105B10509F477
:100A1000A2CF61E0D0CFECE3F1E01382128284E058
:100A200091E0918380838CE084838FEF85838BE0DA
:100A3000868385E0878384E0808783E0818782E006
:100A400082871386148615861686178681E00C9495
:100A500079020E946B0508F481E00895E89409C0CA
:100A600097FB3EF490958095709561957F4F8F4FE1
:100A70009F4F9923A9F0F92F96E9BB279395F695F7
:100A8000879577956795B795F111F8CFFAF4BB0F75
:100A900011F460FF1BC06F5F7F4F8F4F9F4F16C0D9
:100AA000882311F096E911C0772321F09EE8872F63
:100AB000762F05C0662371F096E8862F70E060E01F
:100AC0002AF09A95660F771F881FDAF7880F969598
:100AD000879597F90895990F0008550FAA0BE0E83C
:100AE000FEEF16161706E807F907C0F012161306F0
:100AF000E407F50798F0621B730B840B950B39F430
:100B00000A2661F0232B242B252B21F408950A2695
:100B100009F4A140A6958FEF811D811D08950E94C3
:100B20006B0508F48FEF08950E94A7050C94180632
:100B30000E940A0638F00E94110620F0952311F059
:100B40000C9401060C94070611240C944C060E9488
:100B5000290670F3959FC1F3950F50E0551F629FD2
:100B6000F001729FBB27F00DB11D639FAA27F00D06
:100B7000B11DAA1F649F6627B00DA11D661F829F2D
:100B80002227B00DA11D621F739FB00DA11D621F12
:100B9000839FA00D611D221F749F3327A00D611D2F
:100BA000231F849F600D211D822F762F6A2F112411
:100BB0009F5750409AF0F1F088234AF0EE0FFF1F44
:100BC000BB1F661F771F881F91505040A9F79E3F9B
:100BD000510580F00C9401060C944C065F3FE4F341
:100BE000983ED4F3869577956795B795F795E795F1
:100BF0009F5FC1F7FE2B880F911D9695879597F9FA
:100C0000089597F99F6780E870E060E008959FEF8E
:100C100080EC089500240A94161617061806090693
:100C2000089500240A941216130614060506089562
:100C3000092E0394000C11F4882352F0BB0F40F4EA
:100C4000BF2B11F460FF04C06F5F7F4F8F4F9F4F2A
:100C5000089557FD9058440F551F59F05F3F71F0AC
:100C60004795880F97FB991F61F09F3F79F0879513
:100C70000895121613061406551FF2CF4695F1DF9C
:100C800008C0161617061806991FF1CF869571052C
:100C9000610508940895E894BB2766277727CB0160
:100CA00097F90895EE0FFF1F0590F491E02D099438
:100CB000F894FFCF000000001F039701C501C40195
:100CC00054656D703A20004175746F204D6F6465F6
:0E0CD000004D616E75616C204D6F6465000013
:107E0000112484B714BE81FFF0D085E080938100F7
:107E100082E08093C00088E18093C10086E0809377
:107E2000C20080E18093C4008EE0C9D0259A86E02C
:107E300020E33CEF91E0309385002093840096BBD3
:107E4000B09BFECF1D9AA8958150A9F7CC24DD24C4
:107E500088248394B5E0AB2EA1E19A2EF3E0BF2EE7
:107E6000A2D0813461F49FD0082FAFD0023811F036
:107E7000013811F484E001C083E08DD089C08234E0
:107E800011F484E103C0853419F485E0A6D080C0E4
:107E9000853579F488D0E82EFF2485D0082F10E0AE
:107EA000102F00270E291F29000F111F8ED06801E7
:107EB0006FC0863521F484E090D080E0DECF843638
:107EC00009F040C070D06FD0082F6DD080E0C81688
:107ED00080E7D80618F4F601B7BEE895C0E0D1E017
:107EE00062D089930C17E1F7F0E0CF16F0E7DF06D8
:107EF00018F0F601B7BEE89568D007B600FCFDCFD4
:107F0000A601A0E0B1E02C9130E011968C91119780
:107F100090E0982F8827822B932B1296FA010C0160
:107F200087BEE89511244E5F5F4FF1E0A038BF0790
:107F300051F7F601A7BEE89507B600FCFDCF97BE46
:107F4000E89526C08437B1F42ED02DD0F82E2BD052
:107F50003CD0F601EF2C8F010F5F1F4F84911BD097
:107F6000EA94F801C1F70894C11CD11CFA94CF0C13
:107F7000D11C0EC0853739F428D08EE10CD085E9AC
:107F80000AD08FE07ACF813511F488E018D01DD067
:107F900080E101D065CF982F8091C00085FFFCCF94
:107FA0009093C60008958091C00087FFFCCF809118
:107FB000C00084FD01C0A8958091C6000895E0E648
:107FC000F0E098E1908380830895EDDF803219F02E
:107FD00088E0F5DFFFCF84E1DECF1F93182FE3DFCA
:107FE0001150E9F7F2DF1F91089580E0E8DFEE27F6
:047FF000FF270994CA
:027FFE00040479
:00000001FF
